:100000000C943E000C945E000C9450000C94500034
:100010000C9450000C9450000C9450000C94500020
:100020000C9450000C9450000C9450000C94500010
:100030000C9450000C9450000C9450000C94500000
:100040000C9450000C9450000C9450000C945000F0
:100050000C9450000C9450000C9450000C945000E0
:100060000C9450000C9450000C9450000C945000D0
:100070000C9450000C9450000C94500011241FBE9E
:10008000CFEFD8E0DEBFCDBF21E0A0E0B1E001C0FE
:100090001D92A130B207E1F70E949F000C94CB00A3
:1000A0000C940000F8948FEF81B91AB8E89AE9E649
:1000B000F0E0808181608083789408951F920F9290
:1000C0000FB60F9211248F939F93EF93FF9399B1E3
:1000D000EFE5FAEE3197F1F700C0000089B19470B6
:1000E0008470981307C08091000181110DC081E0D8
:1000F00080930001E09AFF91EF919F918F910F9073
:100100000FBE0F901F90189580910001813011F45F
:1001100082E0EECF80910001823011F483E0E8CFDD
:1001200080910001833011F484E0E2CF80910001DE
:10013000843011F485E0DCCF10920001DBCF8FEF2B
:1001400081B984B987B91AB80E94520092E021E0BF
:10015000809100018230C9F098F48823C1F0813089
:10016000B9F792B9EFE0F7E23197F1F700C000007C
:1001700082B9EFE2F5E73197F1F700C00000E8CF70
:10018000843039F020F0853019F722B9E1CF92B9E7
:0A019000DFCF12B8DDCFF894FFCFE7
:00000001FF
