:100000000C943E000C9461000C9450000C94500031
:100010000C9450000C9450000C9450000C94500020
:100020000C9450000C9450000C9450000C94500010
:100030000C9450000C9452000C9450000C945000FE
:100040000C9450000C9450000C9450000C945000F0
:100050000C9450000C9450000C9450000C945000E0
:100060000C9450000C9450000C9450000C945000D0
:100070000C9450000C9450000C94500011241FBE9E
:10008000CFEFD8E0DEBFCDBF21E0A0E0B1E001C0FE
:100090001D92A230B207E1F70E94A4000C94D70091
:1000A0000C9400001F920F920FB60F9211248F93A1
:1000B00081E0809301018F910F900FBE0F901F90F0
:1000C00018951F920F920FB60F9211248F939F9342
:1000D000EF93FF9399B1EFE5FAEE3197F1F700C096
:1000E000000089B194708470981303C081E08093FC
:1000F0000001FF91EF919F918F910F900FBE0F9094
:100100001F901895109201011092850010928400A2
:10011000909389008093880080E4809380008DE034
:10012000809381001092820082E080936F00089596
:10013000F8948FEF81B91AB8E89AE9E6F0E0808187
:1001400083608083789408958FEF81B984B987B9EB
:100150001AB82FEF87EA91E6215080409040E1F7EE
:1001600000C0000082E082B92FEF80E792E02150CA
:1001700080409040E1F700C0000012B80E94980053
:1001800088EE93E00E94820080910101811104C0F9
:10019000809100018823C1F3F89481E092E02091DE
:1001A0000101213011F492B9FACF82B9F8CFF89455
:0201B000FFCF7F
:00000001FF
